:100000000C948E000C94B6000C94B6000C94021163
:100010000C9426110C944A110C94B6000C94B60062
:100020000C94B6000C94B6000C94B6000C945F0DC2
:100030000C94B6000C94B6000C94B6000C94B60068
:100040000C94A9070C94B6000C94150C0C94580C45
:100050000C94B6000C94B6000C94B6000C94B60048
:100060000C9436120C94B600C905CE05D305D805FC
:10007000DD05EA05EA05EA05EA05E205E605000010
:100080000007000201000003040600000000000059
:100090000000010204081020408001020408102022
:1000A00001020408102004040404040404040202ED
:1000B0000202020203030303030300000000230003
:1000C0002600290000000000250028002B00000069
:1000D0000000240027002A004E414E494E49545941
:1000E000494E46CDCCCC3D0AD7233C17B7D1387703
:1000F000CC2B329595E6241FB14F0A000020410019
:1001000000C84200401C4620BCBE4CCA1B0E5AAE62
:10011000C59D740028071D0DF00F091211241FBE84
:10012000CFEFD8E0DEBFCDBF11E0A0E0B1E0E2E765
:10013000F1E302C005900D92A039B107D9F715E09F
:10014000A0E9B1E001C01D92A634B107E1F710E0CB
:10015000CEE8D0E004C02197FE010E94B118CA3851
:10016000D107C9F70E94680B0C9485130C9400000A
:100170001816190614F460E001C061E08CEF91E0FC
:100180000E94650F61E08CEF91E00E94750F60E0C6
:100190008CEF91E00C94750F1816190614F460E0BA
:1001A00001C061E088EF91E00E94650F61E088EF97
:1001B00091E00E94750F60E088EF91E00C94750F5C
:1001C0002F923F924F925F926F927F928F929F9267
:1001D000AF92BF92CF92DF92EF92FF920F931F9355
:1001E000CF93DF93CDB7DEB764970FB6F894DEBF39
:1001F0000FBECDBF6D837E838F83988749015A01DF
:1002000020910401309105013C832B8380910602EB
:10021000909107024D815E81481B590B5A83498397
:1002200080910402909105021401281A390A610193
:1002300037FE04C0CC24DD24C218D30809811A81FA
:1002400017FF03C011950195110978010C151D05C3
:100250000CF47601B701882777FD8095982F0E94CE
:10026000C9142B013C01B801882777FD8095982F90
:100270000E94C914A30192010E942E146B877C87EF
:100280008D879E87B601882777FD8095982F0E94DD
:10029000C914A30192010E942E146F87788B898B59
:1002A0009A8B8701412C512C3201730162018FEF2F
:1002B0009FEF9A878987E0910602F0910702FC8BF5
:1002C000EB8BCF01AA2797FDA095BA2F2D813E81F8
:1002D0004F81588582179307A407B50709F4BBC05F
:1002E0002B853C854D855E85C701B6010E94C613EE
:1002F0006B017C0120E030E040E85FE30E9479156B
:1003000087FD2BC0E981FA811E161F061CF480911F
:10031000030202C080910202992787FD90952981EE
:100320003A81121613061CF02FEF3FEF02C021E0B6
:1003300030E04B895C89240F351F309307022093EE
:1003400006020E94B80020E030E040E85FE3C70109
:10035000B6010E94C5136B017C018091040290914B
:1003600005029C8B8B8BAA2797FDA095BA2F881529
:100370009905AA05BB05C9F12F85388949895A898C
:10038000C301B2010E94C6132B013C0120E030E002
:1003900040E85FE30E94791587FD27C0121413041B
:1003A0001CF48091010202C080910002992787FD10
:1003B0009095121413041CF02FEF3FEF02C021E0C0
:1003C00030E0EB89FC892E0F3F1F3093050220930C
:1003D00004020E94CC0020E030E040E85FE3C3016B
:1003E000B2010E94C5132B013C014B815C81298520
:1003F0003A85420F531F80910601909107014817DB
:1004000059074CF02091040130910501CA012417CD
:1004100035070CF4C9012091D9013091DA01AC0102
:10042000420F531F5C834B83CA010E943E08809198
:100430000401909105012091060130910701821B72
:10044000930B0817190724F481E090E09A878987B5
:100450000150110930CF8091040290910502AA2722
:1004600097FDA095BA2F88159905AA05BB0509F037
:1004700074CF309307022093060290920502809277
:10048000040264960FB6F894DEBF0FBECDBFDF91B5
:10049000CF911F910F91FF90EF90DF90CF90BF9081
:1004A000AF909F908F907F906F905F904F903F9014
:1004B0002F9008954F925F926F927F928F929F92AA
:1004C000AF92BF92CF92DF92EF92FF92CF93DF93E2
:1004D00000D000D0CDB7DEB76B017C0129833A8311
:1004E0004B835C8326EF38E24FEA52E469817A81DC
:1004F0008B819C810E947D150E9496144B015C01AA
:1005000026EF38E24FEA52E4C701B6010E947D159A
:100510000E949614A50194010E94E000209194018C
:10052000309195014091960150919701C701B60114
:100530000E94C5132B013C01209190013091910143
:10054000409192015091930169817A818B819C81C4
:100550000E94C5134B015C01A3019201C301B201CA
:100560000E947D152B013C01A5019401C501B40138
:100570000E947D159B01AC01C301B2010E94C6130C
:100580000E94E4152FE632E143E85AE30E942A1460
:1005900087FD14C0C0929401D0929501E09296011B
:1005A000F092970189819A81AB81BC8180939001FF
:1005B00090939101A0939201B09393010F900F90AB
:1005C0000F900F90DF91CF91FF90EF90DF90CF9041
:1005D000BF90AF909F908F907F906F905F904F9063
:1005E00008958091F0010E941809019749F58091C2
:1005F000F2010E941809019719F5809101029927CB
:1006000081950CF490950E94CC0080910601909108
:1006100007010E943E08E5CF8091EA010E94180977
:100620000197A1F480910302992781950CF490958C
:100630000E94B80080910601909107010E943E0837
:100640008091E8010E941809019731F31092070286
:100650001092060210920502109204020895109260
:1006600007021092060210920502109204020895E9
:100670008F929F92AF92BF92CF92DF92EF92FF92B2
:100680000F931F93CF93DF9300D0CDB7DEB7AE01AA
:100690004F5F5F4F6AE371E00E9496138C01609197
:1006A000060270910702882777FD8095982F0E9497
:1006B000C91426EF38E24FEA52E40E942E146B016F
:1006C0007C018091040290910502BC01882777FD8E
:1006D0008095982F0E94C91426EF38E24FEA52E421
:1006E0000E942E144B015C01012BE1F1AE014F5F22
:1006F0005F4F6AE371E080E090E00E9496138C0106
:10070000FC018081883539F4C80101960E94631389
:100710006B017C01E9CF893529F4C80101960E945B
:100720006313E0CF863499F4C80101960E946313E5
:1007300020E030E040E752E40E942E14609308026B
:100740007093090280930A0290930B02CDCF8134FB
:1007500059F6C80101960E9467139093DA018093BD
:10076000D901C2CFA5019401C701B6010E945A0266
:100770000F900F90DF91CF911F910F91FF90EF900D
:10078000DF90CF90BF90AF909F908F900895CF93C0
:10079000DF936EE171E085E592E00E947E09CCE096
:1007A000D2E06D857E854AE050E085E592E00E94CA
:1007B0004D0A60E285E592E00E9480096B857C85A8
:1007C0004AE050E085E592E00E944D0A60E285E54E
:1007D00092E00E94800960910602709107028827CA
:1007E00077FD8095982F0E94C91426EF38E24FEAD2
:1007F00052E40E942E14AB01BC0122E030E085E5FA
:1008000092E00E94530B60E285E592E00E9480092D
:100810006091040270910502882777FD8095982FDA
:100820000E94C91426EF38E24FEA52E40E942E14C7
:10083000AB01BC0122E030E085E592E00E94530B61
:1008400060E285E592E00E94800966E271E085E55C
:1008500092E00E947E09688570E04AE050E085E5FC
:1008600092E00E944D0A68E271E085E592E00E9404
:100870007E09698570E04AE050E085E592E00E94DB
:100880004D0A6BE271E085E592E00E947E096A857F
:1008900070E04AE050E085E592E00E944D0A6EE289
:1008A00071E085E592E00E947E096F8578894AE0D3
:1008B00050E085E592E00E944D0A61E371E085E534
:1008C00092E00E947E0969897A894AE050E085E5D4
:1008D00092E00E944D0A64E371E085E592E00E9497
:1008E0007E096B897C894AE050E085E592E0DF91E2
:1008F000CF910C94550A67E371E085E592E00E9480
:100900007E098091EA010E9418094AE050E0BC018A
:1009100085E592E00E944D0A6AE371E085E592E088
:100920000E947E098091E8010E9418094AE050E087
:10093000BC0185E592E00E944D0A6AE371E085E51D
:1009400092E00E947E098091F2010E9418094AE01B
:1009500050E0BC0185E592E00E944D0A6AE371E037
:1009600085E592E00E947E098091F0010E941809BD
:100970004AE050E0BC0185E592E00C94550A0F93E3
:100980001F93CF93DF930CE012E0C0E0D0E0F801BA
:1009900041918F01BE018FEF92E00E945B0D219685
:1009A000C034D105A1F7DF91CF911F910F91089528
:1009B0000F931F93CF93DF9300D0CDB7DEB7AE0177
:1009C0004F5F5F4F6AE371E00E9496138C01012B29
:1009D00009F43FC0AE014F5F5F4F6AE371E080E012
:1009E00090E00E9496138C01FC018081813439F4DF
:1009F000C80101960E94671380931402E8CF8234E5
:100A000039F4C80101960E94671380931502DFCF65
:100A1000883449F4C80101960E9467139093180224
:100A200080931702D4CF873549F4C80101960E94FC
:100A3000671390931A0280931902C9CF833539F650
:100A4000C80101960E94671390931C0280931B02B9
:100A5000BECF0E94BF040F900F90DF91CF911F91E6
:100A60000F910895CF93DF9300D0CDB7DEB7AE01DD
:100A70004F5F5F4F6AE371E00E94961389819A810C
:100A80000E9467139093DA018093D9010F900F9021
:100A9000DF91CF910895CF93DF9300D0CDB7DEB72C
:100AA000AE014F5F5F4F6AE371E00E949613898148
:100AB0009A810E946713BC0184EE91E00E949E0F10
:100AC0000F900F90DF91CF910895CF93DF9300D0D7
:100AD000CDB7DEB7AE014F5F5F4F6AE371E00E94B2
:100AE000961389819A810E946713BC018BED91E076
:100AF0000E94F90E0F900F90DF91CF9108950F9300
:100B00001F93CF93DF9300D0CDB7DEB7AE014F5F19
:100B10005F4F6AE371E00E9496138C01012B11F183
:100B2000AE014F5F5F4F6AE371E080E090E00E94AA
:100B300096138C01FC018081853549F4C80101962A
:100B40000E94671390931E0280931D02E7CF8434A6
:100B500029F7C80101960E946713909320028093A1
:100B60001F02DCCF0E94BF040F900F90DF91CF9146
:100B70001F910F910895CF93DF93EC010E946713AB
:100B800001978B30910530F58C5C9F4FFC010C94E4
:100B9000B118CE01DF91CF910C946505CE01DF91A4
:100BA000CF910C947F05CE01DF91CF910C9432054B
:100BB000CE01DF91CF910C944B05CE01DF91CF9107
:100BC0000C94D804DF91CF910C94C703DF91CF919F
:100BD0000C947B04DF91CF910895CF93DF93EC01C8
:100BE0000E94671397FD0EC08230910534F04C9738
:100BF00049F4DF91CF910C94F102CE01DF91CF91B6
:100C00000C943803DF91CF910895FC0190819734C3
:100C100029F4CF0101960E94ED0545C09D3429F4C9
:100C2000CF0101960E94BB053EC09035E1F56CE313
:100C300071E085E592E00E947E0960910602709164
:100C40000702882777FD8095982F0E94C91426EF08
:100C500038E24FEA52E40E942E14AB01BC0122E0BC
:100C600030E085E592E00E94530B62E471E085E597
:100C700092E00E947E09609104027091050288272B
:100C800077FD8095982F0E94C91426EF38E24FEA2D
:100C900052E40E942E14AB01BC0122E030E085E555
:100CA00092E00E94550B65E471E085E592E00C94BA
:100CB0009B090F931F93CF93DF930CE012E0C0E0EA
:100CC000D0E0BE018FEF92E00E94580DD8018D93C5
:100CD0008D012196C034D105A1F743E050E068E4CE
:100CE00071E08CE092E00E948813892BB1F16CE4F2
:100CF00071E085E592E00E949B0980E4ECE0F2E07F
:100D0000DF011D928A95E9F788E599E5A4E38093D0
:100D10000C0290930D02A0930E028CE791E0909349
:100D20001A028093190286E391E09093180280934F
:100D3000170280E590E090931C0280931B0280EAEA
:100D400090E090931E0280931D028AE590E09093BC
:100D5000200280931F020E94BF048091140281111F
:100D600005C08FEF8093030281E004C081E080938F
:100D700003028FEF8093020280911502811105C05A
:100D80008FEF8093010281E004C081E08093010233
:100D90008FEF8093000220911B0230911C0284E6A9
:100DA00090E0821B930B4AE0489F9001499F300DD1
:100DB0001124309307012093060144E6489F9001D7
:100DC000499F300D11243093050120930401DF91D8
:100DD000CF911F910F91089562E08091F2010E94DE
:100DE000AC0862E08091F0010E94AC0862E0809162
:100DF000EA010E94AC0862E08091E8010E94AC0820
:100E000040E052EC61E070E085E592E00E94930CD6
:100E10000E9459060E942F036091DE017091DF014C
:100E20008BED91E00E94BE0E64E670E080E090E001
:100E30000E94180860911D0270911E028BED91E0D6
:100E40000E94F90E60E070E084EE91E00C949E0F39
:100E500061E08CEF91E00E94550F62E088EF91E035
:100E60000E94550F63E084EF91E00E94550F84EFDC
:100E700091E00E94890F90E09093F3018093F2013A
:100E800084EF91E00E948C0F90E09093F1018093A9
:100E9000F00166E08CEE91E00E94550F8CEE91E03F
:100EA0000E94890F90E09093EB018093EA018CEE11
:100EB00091E00E948C0F90E09093E9018093E8010B
:100EC0006AE084EE91E00E948F0F67E080EE91E08F
:100ED0000E94550F80EE91E00E948C0F90E090935D
:100EE000DF018093DE018BED91E00C94200E85E50F
:100EF00092E00E94770B892B59F185E592E00E94E0
:100F0000A70BA0919801E1E0EA0FE0939801BB27BD
:100F1000A7FDB095A756BE4F8C938A3099F4FF2752
:100F2000E7FDF095E756FE4F108289E991E00E94B7
:100F3000050680E4E9E9F1E0DF011D928A95E9F711
:100F40001092980180919801803414F010929801C9
:100F500008951F920F920FB60F9211242F933F9373
:100F60008F939F93AF93BF9380914D0290914E02C8
:100F7000A0914F02B091500230914C0223E0230F18
:100F80002D3720F40196A11DB11D05C026E8230FC1
:100F90000296A11DB11D20934C0280934D029093A7
:100FA0004E02A0934F02B093500280915102909153
:100FB0005202A0915302B09154020196A11DB11D9D
:100FC0008093510290935202A0935302B093540223
:100FD000BF91AF919F918F913F912F910F900FBE35
:100FE0000F901F9018953FB7F894809151029091FF
:100FF0005202A0915302B091540226B5A89B05C09D
:101000002F3F19F00196A11DB11D3FBFBA2FA92F87
:10101000982F8827820F911DA11DB11DBC01CD0104
:1010200042E0660F771F881F991F4A95D1F70895F0
:10103000CF92DF92EF92FF92CF93DF936B017C010F
:101040000E94F307EB01C114D104E104F10479F02B
:101050000E94F3076C1B7D0B683E7340A0F381E098
:10106000C81AD108E108F108C851DC4FECCFDF9174
:10107000CF91FF90EF90DF90CF900895019739F0D6
:10108000880F991F880F991F02970197F1F708950C
:10109000789484B5826084BD84B5816084BD85B553
:1010A000826085BD85B5816085BDEEE6F0E080811A
:1010B00081608083E1E8F0E010828081826080833B
:1010C000808181608083E0E8F0E0808181608083BE
:1010D000E1EBF0E0808184608083E0EBF0E08081F0
:1010E00081608083EAE7F0E0808184608083808192
:1010F000826080838081816080838081806880833A
:101100001092C1000895833081F028F4813099F065
:101110008230A1F008958630A9F08730B9F084308C
:10112000D1F4809180008F7D03C0809180008F7703
:1011300080938000089584B58F7702C084B58F7D39
:1011400084BD08958091B0008F7703C08091B00076
:101150008F7D8093B0000895CF93DF9390E0FC01E2
:10116000EE56FF4F2491FC01EA55FF4F84918823EE
:1011700061F190E0880F991FFC01E253FF4FC59188
:10118000D491FC01EC53FF4FA591B491611109C0BA
:101190009FB7F8948881209582238883EC912E2331
:1011A0000BC0623061F49FB7F8943881822F80952C
:1011B00083238883EC912E2B2C939FBF06C08FB77F
:1011C000F894E8812E2B28838FBFDF91CF9108956B
:1011D0001F93CF93DF93282F30E0F901E258FF4FA0
:1011E0008491F901EE56FF4FD491F901EA55FF4F72
:1011F000C491CC23C9F0162F81110E948308EC2FD3
:10120000F0E0EE0FFF1FEC53FF4FA591B4918FB7A5
:10121000F894111105C09C91ED2FE095E92302C0CF
:10122000EC91ED2BEC938FBFDF91CF911F9108953F
:10123000CF93DF93282F30E0F901E258FF4F8491DC
:10124000F901EE56FF4FD491F901EA55FF4FC491D1
:10125000CC2391F081110E948308EC2FF0E0EE0F77
:10126000FF1FE654FF4FA591B491EC91ED2381E06F
:1012700090E021F480E002C080E090E0DF91CF9127
:101280000895CF92DF92EF92FF920F931F93CF9327
:10129000DF936C01EB017B01E40EF51E00E010E032
:1012A000CE15DF0561F06991D601ED91FC910190B9
:1012B000F081E02DC6010995080F191FF1CFC80173
:1012C000DF91CF911F910F91FF90EF90DF90CF9022
:1012D00008956115710579F0FB0101900020E9F78F
:1012E0003197AF01461B570BDC01ED91FC91028059
:1012F000F381E02D099480E090E008950C94690951
:10130000DC01ED91FC910190F081E02D09940F93A7
:101310001F93CF93DF93EC016DE00E9480098C0155
:101320006AE0CE010E948009800F911FDF91CF916A
:101330001F910F9108950F931F93CF93DF93EC01AB
:101340000E9469098C01CE010E948709800F911FBC
:10135000DF91CF911F910F9108958F929F92AF923D
:10136000BF92CF92DF92EF92FF920F931F93CF9392
:10137000DF93CDB7DEB7A1970FB6F894DEBF0FBEEF
:10138000CDBF6C01142FE52FCB01022F19A2223003
:1013900008F40AE07E0121E2E20EF11C802E912C7D
:1013A000A12CB12C612F7E2FA50194010E94391828
:1013B000029F1019112481E0E81AF1081A3014F480
:1013C000105D01C0195CF7011083122FE32FCA01D1
:1013D000232B242B252B31F7B701C6010E94690965
:1013E000A1960FB6F894DEBF0FBECDBFDF91CF91AF
:1013F0001F910F91FF90EF90DF90CF90BF90AF9033
:101400009F908F900895CF92DF92EF92FF920F936B
:101410001F93CF93DF93EC016A017B012115310506
:1014200079F4E881F9810190F081E02D642FDF915A
:10143000CF911F910F91FF90EF90DF90CF90099483
:101440002A303105E9F477FF1AC06DE20E94800965
:101450008C0144275527BA014C195D096E097F0993
:101460002AE0CE010E94AD09800F911FDF91CF913C
:101470001F910F91FF90EF90DF90CF9008952AE099
:10148000B701A601CE01DF91CF911F910F91FF907F
:10149000EF90DF90CF900C94AD099A01AB016627D5
:1014A00057FD6095762F0C94030A0F931F93CF93EB
:1014B000DF93EC019A01AB01662757FD6095762F0B
:1014C0000E94030A8C01CE010E948709800F911FA0
:1014D000DF91CF911F910F9108954F925F926F927C
:1014E0007F928F929F92AF92BF92CF92DF92EF92B4
:1014F000FF92CF93DF93EC016A017B01B22E9A0138
:10150000AB01C701B6010E942216882319F061E6DB
:1015100071E027C026013701E89477F82FEF3FEFFD
:101520004FE75FE7C301B2010E94221681110DC08F
:101530002FEF3FEF4FE75FE7C301B2010E942A148C
:1015400018161CF465E671E00CC02FEF3FEF4FE773
:101550005FE4C701B6010E94791518169CF469E68C
:1015600071E0CE01DF91CF91FF90EF90DF90CF90AF
:10157000BF90AF909F908F907F906F905F904F90B3
:101580000C9469092FEF3FEF4FE75FECC701B601FD
:101590000E942A1487FDE3CF20E030E0A901C701B3
:1015A000B6010E942A1487FF0AC06DE2CE010E9494
:1015B00080094C01F7FAF094F7F8F09402C0812CFE
:1015C000912CA12C60E070E080E09FE3AB1441F02F
:1015D00020E030E040E251E40E942E14A394F6CFC4
:1015E0009B01AC01C701B6010E94C6132B013C014F
:1015F0000E949B146B017C010E94C7149B01AC01EB
:10160000C301B2010E94C5132B013C012AE0B701BE
:10161000A601CE010E94AD097C01E80CF91CBB209B
:1016200039F06DE671E0CE010E946909E80EF91EFD
:10163000DB2CDD2041F120E030E040E251E4C30149
:10164000B2010E947D152B013C010E9496144B01B2
:10165000AA2497FCA094BA2C2AE030E0B501A4019A
:10166000CE010E94030AE80EF91EC501B4010E94D2
:10167000C9149B01AC01C301B2010E94C5132B0127
:101680003C01DA94D6CFC701DF91CF91FF90EF9064
:10169000DF90CF90BF90AF909F908F907F906F9092
:1016A0005F904F9008950C946D0A0F931F93CF9302
:1016B000DF93EC010E946D0A8C01CE010E94870924
:1016C000800F911FDF91CF911F910F910895089581
:1016D0000E9448080E94670B0E94EC06CFE4DCE001
:1016E0000E9477072097E1F30E944F0CF9CFFC018D
:1016F00024853585F901E05CFF4F80819181329628
:1017000020813181805C9F4F821B930B60E470E0ED
:101710000E9425180895DC011C96ED91FC911D97FF
:10172000DF01A05CBF4F2D913C91119712968D91D6
:101730009C9111972817390739F08D919C91E80FEA
:10174000F91F808190E008958FEF9FEF0895FC01CD
:10175000A485B585FD01E05CFF4F20813181329683
:10176000808191812817390779F080819181A80FB4
:10177000B91F8C91208131812F5F3F4F2F73332709
:101780003183208390E008958FEF9FEF0895FC014F
:1017900081A1882329F0A489B5898C9186FFFBCF8C
:1017A00011A208950F931F93CF93DF93FC01A68599
:1017B000B7858D01005C1F4FE801888199810196F2
:1017C0008F739927AD014E5B5F4FEA012881398104
:1017D00082179307D1F3E80128813981A20FB31F43
:1017E0006C93A685B785A05CBF4F11969C938E9392
:1017F000A689B7892C9181E090E0078C02C0880F00
:10180000991F0A94E2F7822B8C9381E081A30488CC
:10181000F589E02D80818064808381E090E0DF9114
:10182000CF911F910F91089508951F920F920FB6B7
:101830000F9211242F934F935F938F939F93EF9366
:10184000FF938091C00082FD1CC02091C600809152
:10185000FB029091FC0201968F7399274091FD0243
:101860005091FE028417950771F0E091FB02F09110
:10187000FC02E554FD4F20839093FC028093FB0211
:1018800002C08091C600FF91EF919F918F915F916F
:101890004F912F910F900FBE0F901F90189585E5D7
:1018A00092E00E94770B892B11F00C94140C089590
:1018B0001F920F920FB60F9211242F933F938F9385
:1018C0009F93EF93FF932091B7023091B8028091DC
:1018D000B9029091BA022817390731F48091C100FA
:1018E0008F7D8093C10014C0E091B902F091BA02DB
:1018F000E958FD4F20818091B9029091BA0201967A
:101900008F7399279093BA028093B9022093C600EF
:10191000FF91EF919F918F913F912F910F900FBE6B
:101920000F901F901895CF92DF92EF92FF920F9336
:101930001F93CF93DF93EC016A017B01411581EE88
:1019400058076105710511F1EC89FD8981E090E08E
:1019500008A002C0880F991F0A94E2F7808360E014
:1019600079E08DE390E0A70196010E943918890182
:101970009A010150110921093109369527951795CA
:1019800007959801011580E11807A8F0EC89FD89F9
:10199000108260E874E88EE190E0A70196010E9451
:1019A0003918DA01C9010197A109B109B695A795BE
:1019B000979587959C01E889F9893083EA89FB89A5
:1019C000208319A2EE89FF89408181E090E09C018B
:1019D0000C8C02C0220F331F0A94E2F7242B2083C1
:1019E000EE89FF8940819C010D8C02C0220F331FBC
:1019F0000A94E2F7242B2083EE89FF8940819C0121
:101A00000E8C02C0220F331F0A94E2F7242B20838E
:101A1000EE89FF8920810F8C02C0880F991F0A94DC
:101A2000E2F7809582238083DF91CF911F910F9100
:101A3000FF90EF90DF90CF900895E5E5F2E01382FC
:101A4000128288EE93E0A0E0B0E084839583A683C1
:101A5000B78383E791E0918380838BEB92E0958756
:101A6000848787E792E09787868785EC90E0918B63
:101A7000808B84EC90E0938B828B80EC90E0958B54
:101A8000848B81EC90E0978B868B82EC90E0918F39
:101A9000808F86EC90E0938F828F84E0848F83E048
:101AA000858F87E0868F85E0878F81E080A308950A
:101AB000CB010C942616CB01642F0C942E161F928A
:101AC0000F920FB60F9211242F933F934F935F9372
:101AD0006F937F938F939F93AF93BF93EF93FF93F6
:101AE0008091010387FF05C0109285001092840049
:101AF0001BC020910103332727FD309580910003FF
:101B000090E02817390784F480910103992787FD15
:101B10009095FC01EE0FFF1F8E0F9F1FFC01EE5FE3
:101B2000FC4F808186FD15C0809101038F5F8093FB
:101B3000010320910103332727FD30958091000395
:101B400090E028173907C4F4809101038C3064F1C8
:101B500013C080910103992787FD9095FC01EE0F3A
:101B6000FF1F8E0F9F1FFC01EE5FFC4F808160E026
:101B70008F730E94E808D8CF8091840090918500EF
:101B8000049680349C4918F480E49CE905C0809157
:101B9000840090918500049690938900809388003A
:101BA0008FEF809301033BC020918400309185002A
:101BB00080910103992787FD9095FC01EE0FFF1F8F
:101BC0008E0F9F1FFC01EE5FFC4F81819281820F7F
:101BD000931F909389008093880080910103992737
:101BE00087FD9095FC01EE0FFF1F8E0F9F1FFC01DC
:101BF000EE5FFC4F808186FF12C080910103992720
:101C000087FD9095FC01EE0FFF1F8E0F9F1FFC01BB
:101C1000EE5FFC4F808161E08F730E94E808FF91C6
:101C2000EF91BF91AF919F918F917F916F915F9154
:101C30004F913F912F910F900FBE0F901F901895CD
:101C4000FC01909100039C30A0F481E0890F809307
:101C500000039083892F90E0FC01EE0FFF1F8E0F91
:101C60009F1FFC01EE5FFC4F88EB9BE0928381831A
:101C700008958FEF80830895DF92EF92FF920F9384
:101C80001F93CF93DF93EC01D62E7A0189018881CF
:101C90008C3008F06AC061E08D2D0E94AC0888810C
:101CA000E82FF0E09F01220F331FE20FF31FEE5FDA
:101CB000FC4F9D2D9F732081207CD22ED92AD0826B
:101CC00060E272E0AB014E195F0957FF02C04D5F41
:101CD0005F4F5595479555954795498340E659E09F
:101CE0009A01201B310B37FF02C02D5F3F4F359506
:101CF0002795359527952A836CE00E9405189CE06E
:101D0000899FB001112440E050E09A01260F371F4F
:101D1000F901EE0FFF1F2E0F3F1FF901EE5FFC4F81
:101D2000908196FD16C04F5F5F4F4C30510569F7AB
:101D300081110FC01092800082E080938100109288
:101D4000850010928400B19A80916F008260809328
:101D50006F00E881F0E0CF01880F991FE80FF91FAD
:101D6000EE5FFC4F8081806480838881DF91CF911A
:101D70001F910F91FF90EF90DF90089520E639E0DA
:101D800040E252E00C943C0EFC0190819C3080F5C6
:101D9000818128E830E0281B310987FD3395220F27
:101DA000331F220F331F621773077CF0828128E5EF
:101DB00032E0281B310987FD3395220F331F220F94
:101DC000331F621773070CF49B014FB7F894892FE8
:101DD00090E0FC01EE0FFF1F8E0F9F1FFC01EE5FD6
:101DE000FC4F22503109220F331F328321834FBF12
:101DF0000895AF92BF92CF92DF92EF92FF920F932E
:101E00001F93CF93DF93EC01603282E078070CF0F0
:101E10003FC077FD06C0653B71052CF064EB70E0B8
:101E200002C060E070E0898128E830E05901A81A1A
:101E3000B10887FDB394AA0CBB1CAA0CBB1CCC2414
:101E4000B7FCC094DC2C882777FD8095982F2A81D9
:101E500008E512E0021B110927FD1395000F111F61
:101E6000000F111F222717FD2095322F3F932F932C
:101E70001F930F9314EBE12EF12C00E010E020E013
:101E800030E0A9010E9453100F900F900F900F9017
:101E9000CE01DF91CF911F910F91FF90EF90DF90D6
:101EA000CF90BF90AF900C94C40EDC01E62FF0E011
:101EB000EE0FFF1FE85FFE4F80818C9381811196AA
:101EC0008C93119712966C9308951F93CF93DF9381
:101ED000EC01162F61E088810E94AC08612F888197
:101EE000DF91CF911F910C94E8081F93CF93DF935C
:101EF000EC01162F61E089810E94AC08612F898175
:101F0000DF91CF911F910C94E808FC0180810C9423
:101F1000F40FFC0180810895FC01818108950E94E5
:101F2000550F81E0809380008BE08093810083E0F7
:101F30008093B00084E08093B10008950F931F93C5
:101F4000CF93DF938C016F3F710519F014F06FEFA1
:101F500070E0EB0161308FEF780714F4C1E0DFEF40
:101F6000D7FD06C061E0C8010E94750FBE0108C020
:101F700060E0C8010E94750F662777276C1B7D0BF8
:101F8000C801DF91CF911F910F910C94850F21E033
:101F900030E0FC0131832083EE5FFE4F108211821E
:101FA0001282138234961082118212821382349626
:101FB0001082319610823196108211821282138221
:101FC00034961182108232961082319610821182DC
:101FD0001282138234961082118212821382089523
:101FE00086E293E00C94C70F1F93CF93DF93182FD3
:101FF000EB0161E00E94AC08209711F460E004C09E
:10200000CF3FD10539F461E0812FDF91CF911F914E
:102010000C94E808E12FF0E0E258FF4FE491E33040
:10202000F9F048F4E130B9F0E230A1F584B580620E
:1020300084BDC8BD34C0E630E9F0E73019F1E430C2
:1020400049F580918000806280938000D0938B005E
:10205000C0938A0024C084B5806884BDC7BD1FC0FA
:1020600080918000806880938000D0938900C09325
:10207000880015C08091B00080688093B000C09344
:10208000B3000DC08091B00080628093B000C09317
:10209000B40005C0C038D1050CF0B5CFAFCFDF918B
:1020A000CF911F9108954F925F926F927F92AF925E
:1020B000BF92CF92DF92EF92FF920F931F93CF9335
:1020C000DF93CDB7DEB729013A019B01AC0124199A
:1020D00035094609570989899A89AB89BC89BC01A8
:1020E000CD016A197B098C099D090E94F517A80189
:1020F000970124193509460957090E945B18CA013E
:10210000B9016A0D7B1D8C1D9D1DDF91CF911F9123
:102110000F91FF90EF90DF90CF90BF90AF907F90A6
:102120006F905F904F90089520E001972FEF8F3FC1
:102130009207D9F70895EF92FF920F931F93CF93D1
:10214000DF93EC018B8DEE85FF859D8581FF04C0BB
:102150008081982329F446C08081982309F042C0E9
:102160008B899C890E94941088E0E82EF12C10E065
:1021700001E08D899E890E949410EE85FF859081F3
:102180008D85892311F0102B03C0802F8095182393
:10219000000F81E0E81AF10861F78F89988D0E949D
:1021A00094108B8D81FD1095809142042091410403
:1021B00090E001968F73992730E08217930779F0AA
:1021C000E0914204F0E0ED5BFB4F1083809142040C
:1021D00090E001968F7399278093420403C08B8D02
:1021E00081608B8FDF91CF911F910F91FF90EF90C6
:1021F00008958091830490918404009711F00C94C9
:102200009B1008951F920F920FB60F9211242F93D7
:102210003F934F935F936F937F938F939F93AF936E
:10222000BF93EF93FF930E94F910FF91EF91BF913D
:10223000AF919F918F917F916F915F914F913F915E
:102240002F910F900FBE0F901F9018951F920F9215
:102250000FB60F9211242F933F934F935F936F9379
:102260007F938F939F93AF93BF93EF93FF930E94BE
:10227000F910FF91EF91BF91AF919F918F917F9155
:102280006F915F914F913F912F910F900FBE0F90E3
:102290001F9018951F920F920FB60F9211242F9333
:1022A0003F934F935F936F937F938F939F93AF93DE
:1022B000BF93EF93FF930E94F910FF91EF91BF91AD
:1022C000AF919F918F917F916F915F914F913F91CE
:1022D0002F910F900FBE0F901F9018958091B4040E
:1022E00090E02091B504821B910908959091B50466
:1022F0008091B404981750F4E92FF0E0EA54FB4FB2
:10230000208130E09F5F9093B50402C02FEF3FEF34
:10231000C9010895E091B5048091B404E81730F440
:10232000F0E0EA54FB4F808190E008958FEF9FEF3B
:1023300008950895CF92DF92EF92FF920F931F932B
:10234000CF93DF937C01262F972F8A0180919104F0
:10235000882391F0C62FD72F6E01C40ED51ECC1541
:10236000DD0571F06991D701ED91FC910190F0814B
:10237000E02DC7010995F3CF642F822F0E940D1223
:10238000C801DF91CF911F910F91FF90EF90DF90E7
:10239000CF900895CF93DF931F92CDB7DEB76983B7
:1023A000209191042223D1F020919204203240F018
:1023B00021E030E0FC013383228380E090E015C00F
:1023C00080919304E82FF0E0EC56FB4F99819083C5
:1023D0008F5F809393048093920405C061E0CE01E7
:1023E00001960E940D1281E090E00F90DF91CF9155
:1023F0000895FC011382128288EE93E0A0E0B0E021
:1024000084839583A683B78383E891E09183808357
:10241000089585E894E00C94F911613298F42091C4
:102420004305243089F46093F804FC012AEF34E07A
:10243000D9018A2F821B861718F481918D93F9CFC9
:1024400080E0089581E0089582E0089585ED80930D
:10245000BC008091BC0084FDFCCF10924305089520
:1024600085EC8093BC001092430508951F920F9253
:102470000FB60F9211242F933F934F935F936F9357
:102480007F938F939F93AF93BF93EF93FF9380912D
:10249000B900887F803609F49CC068F5883209F459
:1024A0005BC090F4803109F454C038F4882309F4F7
:1024B000F5C0883009F44DC0F5C0883109F44CC02E
:1024C000803209F45DC0EEC0803409F468C048F47D
:1024D000803309F455C0883309F0E4C08093D604F2
:1024E000A8C0803509F44FC0883509F45DC0883430
:1024F00009F0D8C0D5C0883909F4C6C0A8F4883717
:1025000009F467C038F4883609F463C0803709F4E9
:1025100060C0C8C0883809F4B7C0803909F45FC00A
:10252000803809F0BFC05BC0803B09F485C038F437
:10253000803A09F466C0883A09F47EC0B3C0803C92
:1025400009F4A6C0883C09F4A3C0883B09F489C0FB
:10255000A9C08091420510C090911B0580911A0579
:10256000981770F5E0911B0581E08E0F80931B0595
:10257000F0E0E45EFA4F80818093BB0085EC85C07B
:102580008093D6048DC0E0911B0581E08E0F80936F
:102590001B058091BB00F0E0E45EFA4F80839091D0
:1025A0001B0580911A056DC0E0911B0581E08E0F1F
:1025B00080931B058091BB00F0E0E45EFA4F8083BE
:1025C0008091410581116CC081E08093400584EACF
:1025D00060C083E0809343051092D704CFCF8091F1
:1025E000D704803208F050C0E091D70481E08E0F0C
:1025F0008093D7048091BB00F0E0E852FB4F8083CA
:10260000BDCF8091D704803230F4E091D704F0E060
:10261000E852FB4F10820E9426126091D70470E0AE
:10262000E0913C05F0913D0588ED94E0099510920C
:10263000D7040E94301236C084E080934305109284
:10264000F9041092F804E0913E05F0913F050995D8
:102650008091F804811105C081E08093F804109204
:10266000FA04E091F90481E08E0F8093F904F0E020
:10267000E650FB4F80818093BB009091F9048091DC
:10268000F804981708F47ACF85E88093BC000AC054
:1026900085EC8093BC001092430504C01092D604D0
:1026A0000E942612FF91EF91BF91AF919F918F9160
:1026B0007F916F915F914F913F912F910F900FBE3E
:1026C0000F901F901895662777270C943C16FC01F5
:1026D00088279927E89421912032E9F3293010F0D6
:1026E0002E30C8F32B3241F02D3239F4689404C0F7
:1026F0000E94BD13820F911D219120532A30C0F3F7
:102700001EF4909581959F4F0895F8940C94B718F6
:10271000FB01DC014150504030F08D910190801957
:1027200019F40020B9F7881B990B0895FA01A191BB
:10273000B081009719F41097E1F0CD01DC01CD01D3
:102740000D90002011F4C00113C0FB012191222340
:1027500019F02015D9F7F3CFFB012191201519F4B9
:102760001E92119606C02223C1F70D900020A1F7FA
:10277000D001FA01A193B08308957AE0979F902D3C
:10278000879F802D910D112408955058BB27AA27AB
:102790000ED075C166D130F06BD120F031F49F3F7F
:1027A00011F41EF45BC10EF4E095E7FB51C1E92F73
:1027B00077D180F3BA17620773078407950718F07B
:1027C00071F49EF58FC10EF4E0950B2EBA2FA02D5B
:1027D0000B01B90190010C01CA01A0011124FF27CE
:1027E000591B99F0593F50F4503E68F11A16F040C9
:1027F000A22F232F342F4427585FF3CF46953795C8
:102800002795A795F0405395C9F77EF41F16BA0B8C
:10281000620B730B840BBAF09150A1F0FF0FBB1F3A
:10282000661F771F881FC2F70EC0BA0F621F731F83
:10283000841F48F4879577956795B795F7959E3FE0
:1028400008F0B3CF9395880F08F09927EE0F97956E
:1028500087950895D9D008F481E008950CD00FC170
:1028600007D140F0FED030F021F45F3F19F0F0C006
:10287000511139C1F3C014D198F39923C9F35523E9
:10288000B1F3951B550BBB27AA2762177307840763
:1028900038F09F5F5F4F220F331F441FAA1FA9F319
:1028A00033D00E2E3AF0E0E830D091505040E6950B
:1028B000001CCAF729D0FE2F27D0660F771F881F6C
:1028C000BB1F261737074807AB07B0E809F0BB0B5B
:1028D000802DBF01FF2793585F4F2AF09E3F51057F
:1028E00068F0B6C000C15F3FECF3983EDCF386951C
:1028F00077956795B795F7959F5FC9F7880F911DF5
:102900009695879597F90895E1E0660F771F881FE0
:10291000BB1F621773078407BA0720F0621B730B93
:10292000840BBA0BEE1F88F7E095089504D06894E5
:10293000B111D9C00895BCD088F09F5790F0B92F3D
:102940009927B751A0F0D1F0660F771F881F991F04
:102950001AF0BA95C9F712C0B13081F0C3D0B1E016
:102960000895C0C0672F782F8827B85F39F0B93F26
:10297000CCF3869577956795B395D9F73EF4909506
:102980008095709561957F4F8F4F9F4F0895E89484
:1029900009C097FB3EF490958095709561957F4FA7
:1029A0008F4F9F4F9923A9F0F92F96E9BB27939555
:1029B000F695879577956795B795F111F8CFFAF465
:1029C000BB0F11F460FF1BC06F5F7F4F8F4F9F4F96
:1029D00016C0882311F096E911C0772321F09EE8F4
:1029E000872F762F05C0662371F096E8862F70E05A
:1029F00060E02AF09A95660F771F881FDAF7880F34
:102A00009695879597F90895990F0008550FAA0B89
:102A1000E0E8FEEF16161706E807F907C0F01216F1
:102A20001306E407F50798F0621B730B840B950BF4
:102A300039F40A2661F0232B242B252B21F4089549
:102A40000A2609F4A140A6958FEF811D811D0895E6
:102A500097F99F6780E870E060E008959FEF80EC51
:102A6000089500240A9416161706180609060895F4
:102A700000240A9412161306140605060895092E5A
:102A80000394000C11F4882352F0BB0F40F4BF2BC9
:102A900011F460FF04C06F5F7F4F8F4F9F4F089509
:102AA00057FD9058440F551F59F05F3F71F04795FF
:102AB000880F97FB991F61F09F3F79F087950895E4
:102AC000121613061406551FF2CF4695F1DF08C003
:102AD000161617061806991FF1CF86957105610520
:102AE00008940895E894BB2766277727CB0197F9C8
:102AF00008958ADF08F48FEF08950BD0C0CFB1DFBF
:102B000028F0B6DF18F0952309F0A2CFA7CF112443
:102B1000EACFC6DFA0F3959FD1F3950F50E0551F84
:102B2000629FF001729FBB27F00DB11D639FAA2722
:102B3000F00DB11DAA1F649F6627B00DA11D661F71
:102B4000829F2227B00DA11D621F739FB00DA11D92
:102B5000621F839FA00D611D221F749F3327A00D4C
:102B6000611D231F849F600D211D822F762F6A2FE8
:102B700011249F5750408AF0E1F088234AF0EE0F6D
:102B8000FF1FBB1F661F771F881F91505040A9F77A
:102B90009E3F510570F05CCFA6CF5F3FECF3983EAF
:102BA000DCF3869577956795B795F795E7959F5FE1
:102BB000C1F7FE2B880F911D9695879597F908957B
:102BC00011F40EF44BCFDFC173DFD0F39923D9F3A7
:102BD000CEF39F57550B87FFE4D10024A0E640EACF
:102BE000900180585695979528F4805C660F771F62
:102BF000881F20F026173707480730F4621B730B35
:102C0000840B202931294A2BA69517940794202557
:102C100031254A2758F7660F771F881F20F026179F
:102C20003707480730F4620B730B840B200D311DFE
:102C3000411DA09581F7B901842F9158880F969571
:102C400087950895E1DE880B990B0895F999FECFD9
:102C500092BD81BDF89A992780B50895262FF999DC
:102C6000FECF1FBA92BD81BD20BD0FB6F894FA9A6F
:102C7000F99A0FBE01960895A0E0B0E0E2E4F6E113
:102C80000C947C188B016115710521F0DB018C938C
:102C900011969C93EC015E01BFEFAB1ABB0A750164
:102CA000C8808C2D90E00E94A317892B11F0E501BC
:102CB000F2CFEDE2CE1208C07E01F2E0EF0EF11C81
:102CC000C980DD24D39409C02BE2C21205C07E0165
:102CD00042E0E40EF11CC980D12CE701219743E0CA
:102CE00050E060EE70E0CE010E94AB17892BD1F46A
:102CF000E701229645E050E06BED70E0CE010E94C6
:102D0000AB17892B11F4E70127960115110519F06E
:102D1000D801CD93DC93D11008C160E070E080E869
:102D20009FE70CC143E050E068ED70E0CE010E94E7
:102D3000AB17892B59F40115110509F4FBC0B2E05A
:102D4000EB0EF11CF801F182E082F4C0F70160E0C3
:102D500070E0CB01C0E0D0E07F01A0EDAA2EAC0C6A
:102D600029E02A1530F14D2D4260B42E2D2D28700A
:102D7000D2FE04C0211125C0219623C02111219724
:102D8000A5E0B0E09B01AC010E94EA17660F771F37
:102D9000881F991F6A0D711D811D911D6839A9E950
:102DA0007A078A07A9E19A0760F0BD2DB660BB2EAD
:102DB00008C02EEFA2120AC0D3FC50C04D2D4860AF
:102DC000B42E3196D701CC90DB2CC6CF2C2D2F7D85
:102DD000253409F043C0A081AD3241F4BD2DB0616E
:102DE000DB2E7F0122E0E20EF11C0CC07F01AB3232
:102DF00031F04FEFE41AF40A21E030E006C0A2E01F
:102E0000EA0EF11CA18122E030E0A053AA3018F0B4
:102E1000E21AF30A23C0F70120E030E02038BCE0DA
:102E20003B075CF4A901440F551F440F551F240FA5
:102E3000351F220F331F2A0F311DAF014F5F5F4F28
:102E40007A01A081A053AA3010F4FA01E7CFD4FE92
:102E500003C0319521953109C20FD31FD1FE09C09E
:102E60000115110531F0E1E0EE1AF108D801ED92FB
:102E7000FC920E94C7142D2D2370233019F06B0192
:102E80007C0106C06B017C01F7FAF094F7F8F0942E
:102E900020E030E0A901C701B6010E942A1488236E
:102EA00009F440C0D7FF06C0D195C195D10907EFFD
:102EB00010E002C00FE011E04801B8E18B1A910860
:102EC00090E2A92EB12CF801459055906590749030
:102ED000CA15DB055CF0A3019201C701B6010E948F
:102EE0007D156B017C01CA19DB09F2CF0450110971
:102EF000B594A7940815190531F78E2D880F8F2DDD
:102F0000881F8F3F49F020E030E0A901C701B601DA
:102F10000E942A14811106C082E290E09093450538
:102F200080934405C701B60109C060E070E080E805
:102F30009FEF04C060E070E080EC9FE7CDB7DEB7A4
:102F4000E0E10C949818911133C0803219F0895047
:102F50008550D0F70895FB01DC014150504088F0C6
:102F60008D9181341CF08B350CF4805E6591613459
:102F70001CF06B350CF4605E861B611171F3990BCC
:102F80000895881BFCCF9F3F31F0915020F4879526
:102F900077956795B795880F911D9695879597F9C1
:102FA000089591505040660F771F881FD2F70895FB
:102FB000992788270895A29FB001B39FC001A39FBE
:102FC000700D811D1124911DB29F700D811D112462
:102FD000911D08950E94DB17A59F900DB49F900D41
:102FE000A49F800D911D11240895DB018F939F9361
:102FF0000E94EA17BF91AF91A29F800D911DA39FE0
:10300000900DB29F900D11240895991B79E004C092
:10301000991F961708F0961B881F7A95C9F7809517
:103020000895AA1BBB1B51E107C0AA1FBB1FA6170F
:10303000B70710F0A61BB70B881F991F5A95A9F761
:1030400080959095BC01CD01089597FB072E16F44D
:10305000009407D077FD09D00E94111807FC05D015
:103060003EF4909581959F4F0895709561957F4F9F
:103070000895A1E21A2EAA1BBB1BFD010DC0AA1FB9
:10308000BB1FEE1FFF1FA217B307E407F50720F0D1
:10309000A21BB30BE40BF50B661F771F881F991F4C
:1030A0001A9469F760957095809590959B01AC0195
:1030B000BD01CF010895052E97FB1EF400940E94D8
:1030C000721857FD07D00E94391807FC03D04EF440
:1030D0000C94721850954095309521953F4F4F4F65
:1030E0005F4F089590958095709561957F4F8F4FB4
:1030F0009F4F08952F923F924F925F926F927F92CF
:103100008F929F92AF92BF92CF92DF92EF92FF92F7
:103110000F931F93CF93DF93CDB7DEB7CA1BDB0BA3
:103120000FB6F894DEBF0FBECDBF09942A88398848
:1031300048885F846E847D848C849B84AA84B9844F
:10314000C884DF80EE80FD800C811B81AA81B9815B
:10315000CE0FD11D0FB6F894DEBF0FBECDBFED016F
:103160000895EE0FFF1F0590F491E02D0994F89457
:02317000FFCF8F
:1031720001000000E803C800FFFF0B0A03090C0D61
:103182000802FFFF1011140F150E060705044D313A
:10319200302058592000410020420020480020538E
:1031A200002055002044004D31312000504F532063
:1031B20058002059004F4B00585934007365742051
:1031C200746F2064656661756C74207365747570C4
:1031D200006E616E00696E66006F7666002E0000FA
:1031E200000000D20B4109770BA70B8B0BC70B001A
:1031F200000000CA119A116E1176118A11991100FC
:00000001FF
